{"abi":[{"type":"constructor","inputs":[{"name":"name","type":"string","internalType":"string"},{"name":"symbol","type":"string","internalType":"string"}],"stateMutability":"nonpayable"},{"type":"function","name":"DEFAULT_ADMIN_ROLE","inputs":[],"outputs":[{"name":"","type":"bytes32","internalType":"bytes32"}],"stateMutability":"view"},{"type":"function","name":"DOMAIN_SEPARATOR","inputs":[],"outputs":[{"name":"","type":"bytes32","internalType":"bytes32"}],"stateMutability":"view"},{"type":"function","name":"MINTER_ROLE","inputs":[],"outputs":[{"name":"","type":"bytes32","internalType":"bytes32"}],"stateMutability":"view"},{"type":"function","name":"PERMIT_TYPEHASH","inputs":[],"outputs":[{"name":"","type":"bytes32","internalType":"bytes32"}],"stateMutability":"view"},{"type":"function","name":"allowance","inputs":[{"name":"owner","type":"address","internalType":"address"},{"name":"spender","type":"address","internalType":"address"}],"outputs":[{"name":"","type":"uint256","internalType":"uint256"}],"stateMutability":"view"},{"type":"function","name":"approve","inputs":[{"name":"spender","type":"address","internalType":"address"},{"name":"value","type":"uint256","internalType":"uint256"}],"outputs":[{"name":"","type":"bool","internalType":"bool"}],"stateMutability":"nonpayable"},{"type":"function","name":"balanceOf","inputs":[{"name":"account","type":"address","internalType":"address"}],"outputs":[{"name":"","type":"uint256","internalType":"uint256"}],"stateMutability":"view"},{"type":"function","name":"decimals","inputs":[],"outputs":[{"name":"","type":"uint8","internalType":"uint8"}],"stateMutability":"view"},{"type":"function","name":"eip712Domain","inputs":[],"outputs":[{"name":"fields","type":"bytes1","internalType":"bytes1"},{"name":"name","type":"string","internalType":"string"},{"name":"version","type":"string","internalType":"string"},{"name":"chainId","type":"uint256","internalType":"uint256"},{"name":"verifyingContract","type":"address","internalType":"address"},{"name":"salt","type":"bytes32","internalType":"bytes32"},{"name":"extensions","type":"uint256[]","internalType":"uint256[]"}],"stateMutability":"view"},{"type":"function","name":"getPermitDigest","inputs":[{"name":"owner","type":"address","internalType":"address"},{"name":"spender","type":"address","internalType":"address"},{"name":"value","type":"uint256","internalType":"uint256"},{"name":"nonce","type":"uint256","internalType":"uint256"},{"name":"deadline","type":"uint256","internalType":"uint256"}],"outputs":[{"name":"","type":"bytes32","internalType":"bytes32"}],"stateMutability":"view"},{"type":"function","name":"getRoleAdmin","inputs":[{"name":"role","type":"bytes32","internalType":"bytes32"}],"outputs":[{"name":"","type":"bytes32","internalType":"bytes32"}],"stateMutability":"view"},{"type":"function","name":"getTypedDataHash","inputs":[{"name":"structHash","type":"bytes32","internalType":"bytes32"}],"outputs":[{"name":"","type":"bytes32","internalType":"bytes32"}],"stateMutability":"view"},{"type":"function","name":"grantRole","inputs":[{"name":"role","type":"bytes32","internalType":"bytes32"},{"name":"account","type":"address","internalType":"address"}],"outputs":[],"stateMutability":"nonpayable"},{"type":"function","name":"hasRole","inputs":[{"name":"role","type":"bytes32","internalType":"bytes32"},{"name":"account","type":"address","internalType":"address"}],"outputs":[{"name":"","type":"bool","internalType":"bool"}],"stateMutability":"view"},{"type":"function","name":"mint","inputs":[{"name":"to","type":"address","internalType":"address"},{"name":"amount","type":"uint256","internalType":"uint256"}],"outputs":[],"stateMutability":"nonpayable"},{"type":"function","name":"name","inputs":[],"outputs":[{"name":"","type":"string","internalType":"string"}],"stateMutability":"view"},{"type":"function","name":"nonces","inputs":[{"name":"owner","type":"address","internalType":"address"}],"outputs":[{"name":"","type":"uint256","internalType":"uint256"}],"stateMutability":"view"},{"type":"function","name":"permit","inputs":[{"name":"owner","type":"address","internalType":"address"},{"name":"spender","type":"address","internalType":"address"},{"name":"value","type":"uint256","internalType":"uint256"},{"name":"deadline","type":"uint256","internalType":"uint256"},{"name":"v","type":"uint8","internalType":"uint8"},{"name":"r","type":"bytes32","internalType":"bytes32"},{"name":"s","type":"bytes32","internalType":"bytes32"}],"outputs":[],"stateMutability":"nonpayable"},{"type":"function","name":"renounceRole","inputs":[{"name":"role","type":"bytes32","internalType":"bytes32"},{"name":"callerConfirmation","type":"address","internalType":"address"}],"outputs":[],"stateMutability":"nonpayable"},{"type":"function","name":"revokeRole","inputs":[{"name":"role","type":"bytes32","internalType":"bytes32"},{"name":"account","type":"address","internalType":"address"}],"outputs":[],"stateMutability":"nonpayable"},{"type":"function","name":"supportsInterface","inputs":[{"name":"interfaceId","type":"bytes4","internalType":"bytes4"}],"outputs":[{"name":"","type":"bool","internalType":"bool"}],"stateMutability":"view"},{"type":"function","name":"symbol","inputs":[],"outputs":[{"name":"","type":"string","internalType":"string"}],"stateMutability":"view"},{"type":"function","name":"totalSupply","inputs":[],"outputs":[{"name":"","type":"uint256","internalType":"uint256"}],"stateMutability":"view"},{"type":"function","name":"transfer","inputs":[{"name":"to","type":"address","internalType":"address"},{"name":"value","type":"uint256","internalType":"uint256"}],"outputs":[{"name":"","type":"bool","internalType":"bool"}],"stateMutability":"nonpayable"},{"type":"function","name":"transferFrom","inputs":[{"name":"from","type":"address","internalType":"address"},{"name":"to","type":"address","internalType":"address"},{"name":"value","type":"uint256","internalType":"uint256"}],"outputs":[{"name":"","type":"bool","internalType":"bool"}],"stateMutability":"nonpayable"},{"type":"event","name":"Approval","inputs":[{"name":"owner","type":"address","indexed":true,"internalType":"address"},{"name":"spender","type":"address","indexed":true,"internalType":"address"},{"name":"value","type":"uint256","indexed":false,"internalType":"uint256"}],"anonymous":false},{"type":"event","name":"EIP712DomainChanged","inputs":[],"anonymous":false},{"type":"event","name":"RoleAdminChanged","inputs":[{"name":"role","type":"bytes32","indexed":true,"internalType":"bytes32"},{"name":"previousAdminRole","type":"bytes32","indexed":true,"internalType":"bytes32"},{"name":"newAdminRole","type":"bytes32","indexed":true,"internalType":"bytes32"}],"anonymous":false},{"type":"event","name":"RoleGranted","inputs":[{"name":"role","type":"bytes32","indexed":true,"internalType":"bytes32"},{"name":"account","type":"address","indexed":true,"internalType":"address"},{"name":"sender","type":"address","indexed":true,"internalType":"address"}],"anonymous":false},{"type":"event","name":"RoleRevoked","inputs":[{"name":"role","type":"bytes32","indexed":true,"internalType":"bytes32"},{"name":"account","type":"address","indexed":true,"internalType":"address"},{"name":"sender","type":"address","indexed":true,"internalType":"address"}],"anonymous":false},{"type":"event","name":"Transfer","inputs":[{"name":"from","type":"address","indexed":true,"internalType":"address"},{"name":"to","type":"address","indexed":true,"internalType":"address"},{"name":"value","type":"uint256","indexed":false,"internalType":"uint256"}],"anonymous":false},{"type":"error","name":"AccessControlBadConfirmation","inputs":[]},{"type":"error","name":"AccessControlUnauthorizedAccount","inputs":[{"name":"account","type":"address","internalType":"address"},{"name":"neededRole","type":"bytes32","internalType":"bytes32"}]},{"type":"error","name":"ECDSAInvalidSignature","inputs":[]},{"type":"error","name":"ECDSAInvalidSignatureLength","inputs":[{"name":"length","type":"uint256","internalType":"uint256"}]},{"type":"error","name":"ECDSAInvalidSignatureS","inputs":[{"name":"s","type":"bytes32","internalType":"bytes32"}]},{"type":"error","name":"ERC20InsufficientAllowance","inputs":[{"name":"spender","type":"address","internalType":"address"},{"name":"allowance","type":"uint256","internalType":"uint256"},{"name":"needed","type":"uint256","internalType":"uint256"}]},{"type":"error","name":"ERC20InsufficientBalance","inputs":[{"name":"sender","type":"address","internalType":"address"},{"name":"balance","type":"uint256","internalType":"uint256"},{"name":"needed","type":"uint256","internalType":"uint256"}]},{"type":"error","name":"ERC20InvalidApprover","inputs":[{"name":"approver","type":"address","internalType":"address"}]},{"type":"error","name":"ERC20InvalidReceiver","inputs":[{"name":"receiver","type":"address","internalType":"address"}]},{"type":"error","name":"ERC20InvalidSender","inputs":[{"name":"sender","type":"address","internalType":"address"}]},{"type":"error","name":"ERC20InvalidSpender","inputs":[{"name":"spender","type":"address","internalType":"address"}]},{"type":"error","name":"ERC2612ExpiredSignature","inputs":[{"name":"deadline","type":"uint256","internalType":"uint256"}]},{"type":"error","name":"ERC2612InvalidSigner","inputs":[{"name":"signer","type":"address","internalType":"address"},{"name":"owner","type":"address","internalType":"address"}]},{"type":"error","name":"InvalidAccountNonce","inputs":[{"name":"account","type":"address","internalType":"address"},{"name":"currentNonce","type":"uint256","internalType":"uint256"}]},{"type":"error","name":"InvalidShortString","inputs":[]},{"type":"error","name":"StringTooLong","inputs":[{"name":"str","type":"string","internalType":"string"}]}],"bytecode":{"object":"0x6101606040523480156200001257600080fd5b5060405162001a7338038062001a73833981016040819052620000359162000372565b6040805180820190915260018152603160f81b602082015282908190818460036200006183826200046d565b5060046200007082826200046d565b5062000082915083905060066200016e565b61012052620000938160076200016e565b61014052815160208084019190912060e052815190820120610100524660a0526200012160e05161010051604080517f8b73c3c69bb8fe3d512ecc4cf759cc79239f7b179b0ffacaa9a75d522b39400f60208201529081019290925260608201524660808201523060a082015260009060c00160405160208183030381529060405280519060200120905090565b60805250503060c0525062000138600033620001a7565b50620001657f9f2df0fed2c77648de5860a4cc508cd0818c85b8b8a1ab4ceeef8d981c8956a633620001a7565b50505062000593565b60006020835110156200018e57620001868362000259565b9050620001a1565b816200019b84826200046d565b5060ff90505b92915050565b60008281526005602090815260408083206001600160a01b038516845290915281205460ff16620002505760008381526005602090815260408083206001600160a01b03861684529091529020805460ff19166001179055620002073390565b6001600160a01b0316826001600160a01b0316847f2f8788117e7eff1d82e926ec794901d17c78024a50270940304540a733656f0d60405160405180910390a4506001620001a1565b506000620001a1565b600080829050601f8151111562000290578260405163305a27a960e01b815260040162000287919062000539565b60405180910390fd5b80516200029d826200056e565b179392505050565b634e487b7160e01b600052604160045260246000fd5b60005b83811015620002d8578181015183820152602001620002be565b50506000910152565b600082601f830112620002f357600080fd5b81516001600160401b0380821115620003105762000310620002a5565b604051601f8301601f19908116603f011681019082821181831017156200033b576200033b620002a5565b816040528381528660208588010111156200035557600080fd5b62000368846020830160208901620002bb565b9695505050505050565b600080604083850312156200038657600080fd5b82516001600160401b03808211156200039e57600080fd5b620003ac86838701620002e1565b93506020850151915080821115620003c357600080fd5b50620003d285828601620002e1565b9150509250929050565b600181811c90821680620003f157607f821691505b6020821081036200041257634e487b7160e01b600052602260045260246000fd5b50919050565b601f82111562000468576000816000526020600020601f850160051c81016020861015620004435750805b601f850160051c820191505b8181101562000464578281556001016200044f565b5050505b505050565b81516001600160401b03811115620004895762000489620002a5565b620004a1816200049a8454620003dc565b8462000418565b602080601f831160018114620004d95760008415620004c05750858301515b600019600386901b1c1916600185901b17855562000464565b600085815260208120601f198616915b828110156200050a57888601518255948401946001909101908401620004e9565b5085821015620005295787850151600019600388901b60f8161c191681555b5050505050600190811b01905550565b60208152600082518060208401526200055a816040850160208701620002bb565b601f01601f19169190910160400192915050565b80516020808301519190811015620004125760001960209190910360031b1b16919050565b60805160a05160c05160e051610100516101205161014051611485620005ee6000396000610bc901526000610b9c01526000610a9d01526000610a75015260006109d0015260006109fa01526000610a2401526114856000f3fe608060405234801561001057600080fd5b50600436106101735760003560e01c806340c10f19116100de578063a217fddf11610097578063d505accf11610071578063d505accf1461033c578063d53913931461034f578063d547741f14610376578063dd62ed3e1461038957600080fd5b8063a217fddf1461030e578063a9059cbb14610316578063a981b0c51461032957600080fd5b806340c10f191461028957806370a082311461029c5780637ecebe00146102c557806384b0196e146102d857806391d14854146102f357806395d89b411461030657600080fd5b80632c19e8b5116101305780632c19e8b5146102105780632f2ff15d1461022357806330adf81f14610238578063313ce5671461025f5780633644e5151461026e57806336568abe1461027657600080fd5b806301ffc9a71461017857806306fdde03146101a0578063095ea7b3146101b557806318160ddd146101c857806323b872dd146101da578063248a9ca3146101ed575b600080fd5b61018b6101863660046110ef565b6103c2565b60405190151581526020015b60405180910390f35b6101a86103f9565b6040516101979190611166565b61018b6101c3366004611195565b61048b565b6002545b604051908152602001610197565b61018b6101e83660046111bf565b6104a3565b6101cc6101fb3660046111fb565b60009081526005602052604090206001015490565b6101cc61021e366004611214565b6104c7565b610236610231366004611261565b61054f565b005b6101cc7f6e71edae12b1b97f4d1f60370fef10105fa2faae0126114a169c64845d6126c881565b60405160128152602001610197565b6101cc61057a565b610236610284366004611261565b610589565b610236610297366004611195565b6105c1565b6101cc6102aa36600461128d565b6001600160a01b031660009081526020819052604090205490565b6101cc6102d336600461128d565b6105f5565b6102e0610613565b60405161019797969594939291906112a8565b61018b610301366004611261565b610659565b6101a8610684565b6101cc600081565b61018b610324366004611195565b610693565b6101cc6103373660046111fb565b6106a1565b61023661034a366004611341565b6106ac565b6101cc7f9f2df0fed2c77648de5860a4cc508cd0818c85b8b8a1ab4ceeef8d981c8956a681565b610236610384366004611261565b6107eb565b6101cc6103973660046113b4565b6001600160a01b03918216600090815260016020908152604080832093909416825291909152205490565b60006001600160e01b03198216637965db0b60e01b14806103f357506301ffc9a760e01b6001600160e01b03198316145b92915050565b606060038054610408906113de565b80601f0160208091040260200160405190810160405280929190818152602001828054610434906113de565b80156104815780601f1061045657610100808354040283529160200191610481565b820191906000526020600020905b81548152906001019060200180831161046457829003601f168201915b5050505050905090565b600033610499818585610810565b5060019392505050565b6000336104b185828561081d565b6104bc858585610896565b506001949350505050565b604080517f6e71edae12b1b97f4d1f60370fef10105fa2faae0126114a169c64845d6126c86020808301919091526001600160a01b0388811683850152871660608301526080820186905260a0820185905260c08083018590528351808403909101815260e09092019092528051910120600090610544816108f5565b979650505050505050565b60008281526005602052604090206001015461056a81610922565b610574838361092f565b50505050565b60006105846109c3565b905090565b6001600160a01b03811633146105b25760405163334bd91960e11b815260040160405180910390fd5b6105bc8282610aee565b505050565b7f9f2df0fed2c77648de5860a4cc508cd0818c85b8b8a1ab4ceeef8d981c8956a66105eb81610922565b6105bc8383610b5b565b6001600160a01b0381166000908152600860205260408120546103f3565b600060608060008060006060610627610b95565b61062f610bc2565b60408051600080825260208201909252600f60f81b9b939a50919850469750309650945092509050565b60009182526005602090815260408084206001600160a01b0393909316845291905290205460ff1690565b606060048054610408906113de565b600033610499818585610896565b60006103f3826108f5565b834211156106d55760405163313c898160e11b8152600481018590526024015b60405180910390fd5b60007f6e71edae12b1b97f4d1f60370fef10105fa2faae0126114a169c64845d6126c98888886107228c6001600160a01b0316600090815260086020526040902080546001810190915590565b6040805160208101969096526001600160a01b0394851690860152929091166060840152608083015260a082015260c0810186905260e001604051602081830303815290604052805190602001209050600061077d826108f5565b9050600061078d82878787610bef565b9050896001600160a01b0316816001600160a01b0316146107d4576040516325c0072360e11b81526001600160a01b0380831660048301528b1660248201526044016106cc565b6107df8a8a8a610810565b50505050505050505050565b60008281526005602052604090206001015461080681610922565b6105748383610aee565b6105bc8383836001610c1d565b6001600160a01b03838116600090815260016020908152604080832093861683529290522054600019811015610574578181101561088757604051637dc7a0d960e11b81526001600160a01b038416600482015260248101829052604481018390526064016106cc565b61057484848484036000610c1d565b6001600160a01b0383166108c057604051634b637e8f60e11b8152600060048201526024016106cc565b6001600160a01b0382166108ea5760405163ec442f0560e01b8152600060048201526024016106cc565b6105bc838383610cf2565b60006103f36109026109c3565b8360405161190160f01b8152600281019290925260228201526042902090565b61092c8133610e1c565b50565b600061093b8383610659565b6109bb5760008381526005602090815260408083206001600160a01b03861684529091529020805460ff191660011790556109733390565b6001600160a01b0316826001600160a01b0316847f2f8788117e7eff1d82e926ec794901d17c78024a50270940304540a733656f0d60405160405180910390a45060016103f3565b5060006103f3565b6000306001600160a01b037f000000000000000000000000000000000000000000000000000000000000000016148015610a1c57507f000000000000000000000000000000000000000000000000000000000000000046145b15610a4657507f000000000000000000000000000000000000000000000000000000000000000090565b610584604080517f8b73c3c69bb8fe3d512ecc4cf759cc79239f7b179b0ffacaa9a75d522b39400f60208201527f0000000000000000000000000000000000000000000000000000000000000000918101919091527f000000000000000000000000000000000000000000000000000000000000000060608201524660808201523060a082015260009060c00160405160208183030381529060405280519060200120905090565b6000610afa8383610659565b156109bb5760008381526005602090815260408083206001600160a01b0386168085529252808320805460ff1916905551339286917ff6391f5c32d9c69d2a47ea670b442974b53935d1edc7fd64eb21e047a839171b9190a45060016103f3565b6001600160a01b038216610b855760405163ec442f0560e01b8152600060048201526024016106cc565b610b9160008383610cf2565b5050565b60606105847f00000000000000000000000000000000000000000000000000000000000000006006610e55565b60606105847f00000000000000000000000000000000000000000000000000000000000000006007610e55565b600080600080610c0188888888610f00565b925092509250610c118282610fcf565b50909695505050505050565b6001600160a01b038416610c475760405163e602df0560e01b8152600060048201526024016106cc565b6001600160a01b038316610c7157604051634a1406b160e11b8152600060048201526024016106cc565b6001600160a01b038085166000908152600160209081526040808320938716835292905220829055801561057457826001600160a01b0316846001600160a01b03167f8c5be1e5ebec7d5bd14f71427d1e84f3dd0314c0f7b2291e5b200ac8c7c3b92584604051610ce491815260200190565b60405180910390a350505050565b6001600160a01b038316610d1d578060026000828254610d129190611418565b90915550610d8f9050565b6001600160a01b03831660009081526020819052604090205481811015610d705760405163391434e360e21b81526001600160a01b038516600482015260248101829052604481018390526064016106cc565b6001600160a01b03841660009081526020819052604090209082900390555b6001600160a01b038216610dab57600280548290039055610dca565b6001600160a01b03821660009081526020819052604090208054820190555b816001600160a01b0316836001600160a01b03167fddf252ad1be2c89b69c2b068fc378daa952ba7f163c4a11628f55a4df523b3ef83604051610e0f91815260200190565b60405180910390a3505050565b610e268282610659565b610b915760405163e2517d3f60e01b81526001600160a01b0382166004820152602481018390526044016106cc565b606060ff8314610e6f57610e6883611088565b90506103f3565b818054610e7b906113de565b80601f0160208091040260200160405190810160405280929190818152602001828054610ea7906113de565b8015610ef45780601f10610ec957610100808354040283529160200191610ef4565b820191906000526020600020905b815481529060010190602001808311610ed757829003601f168201915b505050505090506103f3565b600080807f7fffffffffffffffffffffffffffffff5d576e7357a4501ddfe92f46681b20a0841115610f3b5750600091506003905082610fc5565b604080516000808252602082018084528a905260ff891692820192909252606081018790526080810186905260019060a0016020604051602081039080840390855afa158015610f8f573d6000803e3d6000fd5b5050604051601f1901519150506001600160a01b038116610fbb57506000925060019150829050610fc5565b9250600091508190505b9450945094915050565b6000826003811115610fe357610fe3611439565b03610fec575050565b600182600381111561100057611000611439565b0361101e5760405163f645eedf60e01b815260040160405180910390fd5b600282600381111561103257611032611439565b036110535760405163fce698f760e01b8152600481018290526024016106cc565b600382600381111561106757611067611439565b03610b91576040516335e2f38360e21b8152600481018290526024016106cc565b60606000611095836110c7565b604080516020808252818301909252919250600091906020820181803683375050509182525060208101929092525090565b600060ff8216601f8111156103f357604051632cd44ac360e21b815260040160405180910390fd5b60006020828403121561110157600080fd5b81356001600160e01b03198116811461111957600080fd5b9392505050565b6000815180845260005b818110156111465760208185018101518683018201520161112a565b506000602082860101526020601f19601f83011685010191505092915050565b6020815260006111196020830184611120565b80356001600160a01b038116811461119057600080fd5b919050565b600080604083850312156111a857600080fd5b6111b183611179565b946020939093013593505050565b6000806000606084860312156111d457600080fd5b6111dd84611179565b92506111eb60208501611179565b9150604084013590509250925092565b60006020828403121561120d57600080fd5b5035919050565b600080600080600060a0868803121561122c57600080fd5b61123586611179565b945061124360208701611179565b94979496505050506040830135926060810135926080909101359150565b6000806040838503121561127457600080fd5b8235915061128460208401611179565b90509250929050565b60006020828403121561129f57600080fd5b61111982611179565b60ff60f81b881681526000602060e060208401526112c960e084018a611120565b83810360408501526112db818a611120565b606085018990526001600160a01b038816608086015260a0850187905284810360c08601528551808252602080880193509091019060005b8181101561132f57835183529284019291840191600101611313565b50909c9b505050505050505050505050565b600080600080600080600060e0888a03121561135c57600080fd5b61136588611179565b965061137360208901611179565b95506040880135945060608801359350608088013560ff8116811461139757600080fd5b9699959850939692959460a0840135945060c09093013592915050565b600080604083850312156113c757600080fd5b6113d083611179565b915061128460208401611179565b600181811c908216806113f257607f821691505b60208210810361141257634e487b7160e01b600052602260045260246000fd5b50919050565b808201808211156103f357634e487b7160e01b600052601160045260246000fd5b634e487b7160e01b600052602160045260246000fdfea2646970667358221220eb14a4154875a310b9fa5f0acb9c778ed4e57fb4e2074e28dd6a6ec9a4103ead64736f6c63430008180033","linkReferences":{}},"methodIdentifiers":{"DEFAULT_ADMIN_ROLE()":"a217fddf","DOMAIN_SEPARATOR()":"3644e515","MINTER_ROLE()":"d5391393","PERMIT_TYPEHASH()":"30adf81f","allowance(address,address)":"dd62ed3e","approve(address,uint256)":"095ea7b3","balanceOf(address)":"70a08231","decimals()":"313ce567","eip712Domain()":"84b0196e","getPermitDigest(address,address,uint256,uint256,uint256)":"2c19e8b5","getRoleAdmin(bytes32)":"248a9ca3","getTypedDataHash(bytes32)":"a981b0c5","grantRole(bytes32,address)":"2f2ff15d","hasRole(bytes32,address)":"91d14854","mint(address,uint256)":"40c10f19","name()":"06fdde03","nonces(address)":"7ecebe00","permit(address,address,uint256,uint256,uint8,bytes32,bytes32)":"d505accf","renounceRole(bytes32,address)":"36568abe","revokeRole(bytes32,address)":"d547741f","supportsInterface(bytes4)":"01ffc9a7","symbol()":"95d89b41","totalSupply()":"18160ddd","transfer(address,uint256)":"a9059cbb","transferFrom(address,address,uint256)":"23b872dd"},"id":50}