{"abi":[{"type":"constructor","inputs":[{"name":"_providerRegistryAddress","type":"address","internalType":"address"},{"name":"_jobPaymentTokenAddress","type":"address","internalType":"address"},{"name":"_initialAdmin","type":"address","internalType":"address"}],"stateMutability":"nonpayable"},{"type":"function","name":"DEFAULT_ADMIN_ROLE","inputs":[],"outputs":[{"name":"","type":"bytes32","internalType":"bytes32"}],"stateMutability":"view"},{"type":"function","name":"acceptJob","inputs":[{"name":"_jobId","type":"uint256","internalType":"uint256"}],"outputs":[],"stateMutability":"nonpayable"},{"type":"function","name":"cancelJob","inputs":[{"name":"_jobId","type":"uint256","internalType":"uint256"}],"outputs":[],"stateMutability":"nonpayable"},{"type":"function","name":"claimPaymentAndCompleteJob","inputs":[{"name":"_jobId","type":"uint256","internalType":"uint256"}],"outputs":[],"stateMutability":"nonpayable"},{"type":"function","name":"createJob","inputs":[{"name":"_jobDataCID","type":"string","internalType":"string"},{"name":"_paymentAmountGPUCredit","type":"uint256","internalType":"uint256"},{"name":"_deadlineTimestamp","type":"uint256","internalType":"uint256"}],"outputs":[{"name":"jobId","type":"uint256","internalType":"uint256"}],"stateMutability":"nonpayable"},{"type":"function","name":"getJob","inputs":[{"name":"_jobId","type":"uint256","internalType":"uint256"}],"outputs":[{"name":"","type":"tuple","internalType":"struct JobManager.Job","components":[{"name":"id","type":"uint256","internalType":"uint256"},{"name":"client","type":"address","internalType":"address"},{"name":"provider","type":"address","internalType":"address"},{"name":"jobDataCID","type":"string","internalType":"string"},{"name":"maxPaymentGPUCredit","type":"uint256","internalType":"uint256"},{"name":"deadlineTimestamp","type":"uint256","internalType":"uint256"},{"name":"status","type":"uint8","internalType":"enum JobManager.JobStatus"},{"name":"resultDataCID","type":"string","internalType":"string"},{"name":"creationTimestamp","type":"uint256","internalType":"uint256"}]}],"stateMutability":"view"},{"type":"function","name":"getRoleAdmin","inputs":[{"name":"role","type":"bytes32","internalType":"bytes32"}],"outputs":[{"name":"","type":"bytes32","internalType":"bytes32"}],"stateMutability":"view"},{"type":"function","name":"grantRole","inputs":[{"name":"role","type":"bytes32","internalType":"bytes32"},{"name":"account","type":"address","internalType":"address"}],"outputs":[],"stateMutability":"nonpayable"},{"type":"function","name":"hasRole","inputs":[{"name":"role","type":"bytes32","internalType":"bytes32"},{"name":"account","type":"address","internalType":"address"}],"outputs":[{"name":"","type":"bool","internalType":"bool"}],"stateMutability":"view"},{"type":"function","name":"jobPaymentToken","inputs":[],"outputs":[{"name":"","type":"address","internalType":"contract IERC20"}],"stateMutability":"view"},{"type":"function","name":"jobs","inputs":[{"name":"","type":"uint256","internalType":"uint256"}],"outputs":[{"name":"id","type":"uint256","internalType":"uint256"},{"name":"client","type":"address","internalType":"address"},{"name":"provider","type":"address","internalType":"address"},{"name":"jobDataCID","type":"string","internalType":"string"},{"name":"maxPaymentGPUCredit","type":"uint256","internalType":"uint256"},{"name":"deadlineTimestamp","type":"uint256","internalType":"uint256"},{"name":"status","type":"uint8","internalType":"enum JobManager.JobStatus"},{"name":"resultDataCID","type":"string","internalType":"string"},{"name":"creationTimestamp","type":"uint256","internalType":"uint256"}],"stateMutability":"view"},{"type":"function","name":"minProviderStakeRequired","inputs":[],"outputs":[{"name":"","type":"uint256","internalType":"uint256"}],"stateMutability":"view"},{"type":"function","name":"nextJobId","inputs":[],"outputs":[{"name":"","type":"uint256","internalType":"uint256"}],"stateMutability":"view"},{"type":"function","name":"providerRegistry","inputs":[],"outputs":[{"name":"","type":"address","internalType":"contract IProviderRegistry"}],"stateMutability":"view"},{"type":"function","name":"renounceRole","inputs":[{"name":"role","type":"bytes32","internalType":"bytes32"},{"name":"callerConfirmation","type":"address","internalType":"address"}],"outputs":[],"stateMutability":"nonpayable"},{"type":"function","name":"revokeRole","inputs":[{"name":"role","type":"bytes32","internalType":"bytes32"},{"name":"account","type":"address","internalType":"address"}],"outputs":[],"stateMutability":"nonpayable"},{"type":"function","name":"setMinProviderStakeRequired","inputs":[{"name":"_newMinStake","type":"uint256","internalType":"uint256"}],"outputs":[],"stateMutability":"nonpayable"},{"type":"function","name":"submitJobResult","inputs":[{"name":"_jobId","type":"uint256","internalType":"uint256"},{"name":"_resultDataCID","type":"string","internalType":"string"}],"outputs":[],"stateMutability":"nonpayable"},{"type":"function","name":"supportsInterface","inputs":[{"name":"interfaceId","type":"bytes4","internalType":"bytes4"}],"outputs":[{"name":"","type":"bool","internalType":"bool"}],"stateMutability":"view"},{"type":"event","name":"JobAccepted","inputs":[{"name":"jobId","type":"uint256","indexed":true,"internalType":"uint256"},{"name":"provider","type":"address","indexed":true,"internalType":"address"}],"anonymous":false},{"type":"event","name":"JobCancelled","inputs":[{"name":"jobId","type":"uint256","indexed":true,"internalType":"uint256"},{"name":"client","type":"address","indexed":true,"internalType":"address"},{"name":"refundAmountGPUCredit","type":"uint256","indexed":false,"internalType":"uint256"}],"anonymous":false},{"type":"event","name":"JobCompletedAndPaid","inputs":[{"name":"jobId","type":"uint256","indexed":true,"internalType":"uint256"},{"name":"provider","type":"address","indexed":true,"internalType":"address"},{"name":"paymentAmountGPUCredit","type":"uint256","indexed":false,"internalType":"uint256"}],"anonymous":false},{"type":"event","name":"JobCreated","inputs":[{"name":"jobId","type":"uint256","indexed":true,"internalType":"uint256"},{"name":"client","type":"address","indexed":true,"internalType":"address"},{"name":"jobDataCID","type":"string","indexed":false,"internalType":"string"},{"name":"maxPaymentGPUCredit","type":"uint256","indexed":false,"internalType":"uint256"},{"name":"deadlineTimestamp","type":"uint256","indexed":false,"internalType":"uint256"}],"anonymous":false},{"type":"event","name":"JobResultSubmitted","inputs":[{"name":"jobId","type":"uint256","indexed":true,"internalType":"uint256"},{"name":"provider","type":"address","indexed":true,"internalType":"address"},{"name":"resultDataCID","type":"string","indexed":false,"internalType":"string"}],"anonymous":false},{"type":"event","name":"MinProviderStakeRequiredChanged","inputs":[{"name":"oldStake","type":"uint256","indexed":false,"internalType":"uint256"},{"name":"newStake","type":"uint256","indexed":false,"internalType":"uint256"}],"anonymous":false},{"type":"event","name":"RoleAdminChanged","inputs":[{"name":"role","type":"bytes32","indexed":true,"internalType":"bytes32"},{"name":"previousAdminRole","type":"bytes32","indexed":true,"internalType":"bytes32"},{"name":"newAdminRole","type":"bytes32","indexed":true,"internalType":"bytes32"}],"anonymous":false},{"type":"event","name":"RoleGranted","inputs":[{"name":"role","type":"bytes32","indexed":true,"internalType":"bytes32"},{"name":"account","type":"address","indexed":true,"internalType":"address"},{"name":"sender","type":"address","indexed":true,"internalType":"address"}],"anonymous":false},{"type":"event","name":"RoleRevoked","inputs":[{"name":"role","type":"bytes32","indexed":true,"internalType":"bytes32"},{"name":"account","type":"address","indexed":true,"internalType":"address"},{"name":"sender","type":"address","indexed":true,"internalType":"address"}],"anonymous":false},{"type":"error","name":"AccessControlBadConfirmation","inputs":[]},{"type":"error","name":"AccessControlUnauthorizedAccount","inputs":[{"name":"account","type":"address","internalType":"address"},{"name":"neededRole","type":"bytes32","internalType":"bytes32"}]},{"type":"error","name":"DeadlineMustBeInFuture","inputs":[]},{"type":"error","name":"DeadlinePassed","inputs":[]},{"type":"error","name":"EscrowAmountZero","inputs":[]},{"type":"error","name":"InvalidJobStatus","inputs":[{"name":"current","type":"uint8","internalType":"enum JobManager.JobStatus"},{"name":"required","type":"uint8","internalType":"enum JobManager.JobStatus"}]},{"type":"error","name":"JobAlreadyHasProvider","inputs":[]},{"type":"error","name":"JobNotFound","inputs":[]},{"type":"error","name":"NotJobClient","inputs":[]},{"type":"error","name":"NotJobProvider","inputs":[]},{"type":"error","name":"OnlyAssignedProviderCanSubmit","inputs":[]},{"type":"error","name":"OnlyClientCanClaim","inputs":[]},{"type":"error","name":"ProviderNotRegisteredOrInsufficientStake","inputs":[]},{"type":"error","name":"ReentrancyGuardReentrantCall","inputs":[]},{"type":"error","name":"TokenTransferFailed","inputs":[]}],"bytecode":{"object":"0x60806040523480156200001157600080fd5b5060405162001bce38038062001bce833981016040819052620000349162000288565b600180556001600160a01b038316620000a45760405162461bcd60e51b815260206004820152602760248201527f50726f7669646572526567697374727920616464726573732063616e6e6f74206044820152666265207a65726f60c81b60648201526084015b60405180910390fd5b6001600160a01b0382166200010b5760405162461bcd60e51b815260206004820152602660248201527f4a6f625061796d656e74546f6b656e20616464726573732063616e6e6f74206260448201526565207a65726f60d01b60648201526084016200009b565b6001600160a01b0381166200016f5760405162461bcd60e51b8152602060048201526024808201527f496e697469616c2061646d696e20616464726573732063616e6e6f74206265206044820152637a65726f60e01b60648201526084016200009b565b600280546001600160a01b038086166001600160a01b0319928316179092556003805492851692909116919091179055620001ac600082620001bc565b5050600060065550620002d29050565b6000828152602081815260408083206001600160a01b038516845290915281205460ff1662000261576000838152602081815260408083206001600160a01b03861684529091529020805460ff19166001179055620002183390565b6001600160a01b0316826001600160a01b0316847f2f8788117e7eff1d82e926ec794901d17c78024a50270940304540a733656f0d60405160405180910390a450600162000265565b5060005b92915050565b80516001600160a01b03811681146200028357600080fd5b919050565b6000806000606084860312156200029e57600080fd5b620002a9846200026b565b9250620002b9602085016200026b565b9150620002c9604085016200026b565b90509250925092565b6118ec80620002e26000396000f3fe608060405234801561001057600080fd5b50600436106101215760003560e01c806363b2f3c9116100ad578063aab368da11610071578063aab368da1461027d578063b0c2aa5e14610290578063bf22c45714610299578063d547741f146102b9578063e2322085146102cc57600080fd5b806363b2f3c91461022957806379c627111461023c57806391d148541461024f5780639208cd7e14610262578063a217fddf1461027557600080fd5b8063248a9ca3116100f4578063248a9ca31461019e5780632f2ff15d146101cf57806336568abe146101e2578063474a750e146101f5578063545921d9146101fe57600080fd5b806301ffc9a714610126578063180aedf31461014e5780631ae649e8146101765780631dffa3dc1461018b575b600080fd5b6101396101343660046112fc565b6102df565b60405190151581526020015b60405180910390f35b61016161015c366004611326565b610316565b604051610145999897969594939291906113bd565b610189610184366004611326565b610484565b005b610189610199366004611326565b6104d5565b6101c16101ac366004611326565b60009081526020819052604090206001015490565b604051908152602001610145565b6101896101dd366004611435565b6106aa565b6101896101f0366004611435565b6106d5565b6101c160065481565b600254610211906001600160a01b031681565b6040516001600160a01b039091168152602001610145565b610189610237366004611326565b61070d565b6101c161024a366004611514565b6108df565b61013961025d366004611435565b610b45565b610189610270366004611326565b610b6e565b6101c1600081565b600354610211906001600160a01b031681565b6101c160055481565b6102ac6102a7366004611326565b610d75565b6040516101459190611562565b6101896102c7366004611435565b610fc4565b6101896102da366004611611565b610fe9565b60006001600160e01b03198216637965db0b60e01b148061031057506301ffc9a760e01b6001600160e01b03198316145b92915050565b600460205260009081526040902080546001820154600283015460038401805493946001600160a01b0393841694939092169261035290611658565b80601f016020809104026020016040519081016040528092919081815260200182805461037e90611658565b80156103cb5780601f106103a0576101008083540402835291602001916103cb565b820191906000526020600020905b8154815290600101906020018083116103ae57829003601f168201915b5050506004840154600585015460068601546007870180549697939692955060ff9091169350906103fb90611658565b80601f016020809104026020016040519081016040528092919081815260200182805461042790611658565b80156104745780601f1061044957610100808354040283529160200191610474565b820191906000526020600020905b81548152906001019060200180831161045757829003601f168201915b5050505050908060080154905089565b600061048f81611192565b600680549083905560408051828152602081018590527ff110c78355ed343b8c0ffb07c0f81c094c6d84b73f8367ea497fe0cdc931dcb5910160405180910390a1505050565b6104dd61119c565b60008181526004602052604090206001015481906001600160a01b03166105175760405163c0a8563160e01b815260040160405180910390fd5b6000818152600460205260409020600101546001600160a01b03163314610551576040516306c3711360e11b815260040160405180910390fd5b600082815260046020526040812090600682015460ff16600581111561057957610579611385565b146105ac5760068101546040516369d22f4360e11b81526105a39160ff1690600090600401611692565b60405180910390fd5b60048181015460068301805460ff1916909217909155604051818152339085907fa80c76c474b34cc7af71dec63d733b959fff08f4eb0789e288be5db6b608f9429060200160405180910390a3600354600183015460405163a9059cbb60e01b81526001600160a01b03918216600482015260248101849052600092919091169063a9059cbb906044015b6020604051808303816000875af1158015610656573d6000803e3d6000fd5b505050506040513d601f19601f8201168201806040525081019061067a91906116c2565b90508061069a5760405163022e258160e11b815260040160405180910390fd5b505050506106a760018055565b50565b6000828152602081905260409020600101546106c581611192565b6106cf83836111c6565b50505050565b6001600160a01b03811633146106fe5760405163334bd91960e11b815260040160405180910390fd5b6107088282611258565b505050565b61071561119c565b600081815260046020526040902060018101546001600160a01b031661074e5760405163c0a8563160e01b815260040160405180910390fd5b6000600682015460ff16600581111561076957610769611385565b146107935760068101546040516369d22f4360e11b81526105a39160ff1690600090600401611692565b428160050154116107b75760405163387b2e5560e11b815260040160405180910390fd5b60028101546001600160a01b0316156107e35760405163d2ae14c360e01b815260040160405180910390fd5b600254604051637583902f60e01b81523360048201526000916001600160a01b031690637583902f90602401608060405180830381865afa15801561082c573d6000803e3d6000fd5b505050506040513d601f19601f8201168201806040525081019061085091906116dd565b90508060600151158061086557506006548151105b156108835760405163fd79d7bf60e01b815260040160405180910390fd5b6002820180546001600160a01b0319163390811790915560068301805460ff1916600117905560405184907f4426e4a90a9570c8f678a263b11785eaaade8b79d76d18c43d4d8e00062e4f8390600090a350506106a760018055565b60006108e961119c565b8260000361090a57604051633807d84360e01b815260040160405180910390fd5b42821161092a57604051630642ce7760e01b815260040160405180910390fd5b6003546040516323b872dd60e01b8152336004820152306024820152604481018590526000916001600160a01b0316906323b872dd906064016020604051808303816000875af1158015610982573d6000803e3d6000fd5b505050506040513d601f19601f820116820180604052508101906109a691906116c2565b9050806109c65760405163022e258160e11b815260040160405180910390fd5b60055460408051610120810182528281523360208083019182526000838501818152606085018c8152608086018c905260a086018b905260c086018390528651808501885283815260e08701524261010087015287835260049093529490208351815591516001830180546001600160a01b03199081166001600160a01b039384161790915594516002840180549096169116179093559151929450916003820190610a729082611797565b506080820151816004015560a0820151816005015560c08201518160060160006101000a81548160ff02191690836005811115610ab157610ab1611385565b021790555060e08201516007820190610aca9082611797565b50610100919091015160089091015560058054906000610ae983611857565b9190505550336001600160a01b0316827f6d8ea6350d0df57435b30450a9ac81ab4a8bca79d94320869b5825a35ce0cff6878787604051610b2c9392919061187e565b60405180910390a350610b3e60018055565b9392505050565b6000918252602082815260408084206001600160a01b0393909316845291905290205460ff1690565b610b7661119c565b60008181526004602052604090206001015481906001600160a01b0316610bb05760405163c0a8563160e01b815260040160405180910390fd5b6000818152600460205260409020600101546001600160a01b03163314610bea576040516306c3711360e11b815260040160405180910390fd5b60008281526004602052604090206002600682015460ff166005811115610c1357610c13611385565b14610c3d5760068101546040516369d22f4360e11b81526105a39160ff1690600290600401611692565b60028101546001600160a01b0316610c685760405163fd79d7bf60e01b815260040160405180910390fd5b60048101546006820180546003919060ff191660018302179055506002805490830154604051631210279760e01b81526001600160a01b03918216600482015260016024820152911690631210279790604401600060405180830381600087803b158015610cd557600080fd5b505af1158015610ce9573d6000803e3d6000fd5b5050505060028201546040518281526001600160a01b039091169085907fc65d40d77d557586a1ab6243a7f6d4e30797ed4a940f9491d7e1f2cbbc7709999060200160405180910390a3600354600283015460405163a9059cbb60e01b81526001600160a01b03918216600482015260248101849052600092919091169063a9059cbb90604401610637565b610dc360408051610120810182526000808252602082018190529181018290526060808201526080810182905260a081018290529060c0820190815260200160608152602001600081525090565b6000828152600460205260409020600101546001600160a01b0316610dfb5760405163c0a8563160e01b815260040160405180910390fd5b6000828152600460209081526040918290208251610120810184528154815260018201546001600160a01b0390811693820193909352600282015490921692820192909252600382018054919291606084019190610e5890611658565b80601f0160208091040260200160405190810160405280929190818152602001828054610e8490611658565b8015610ed15780601f10610ea657610100808354040283529160200191610ed1565b820191906000526020600020905b815481529060010190602001808311610eb457829003601f168201915b5050509183525050600482015460208201526005808301546040830152600683015460609092019160ff1690811115610f0c57610f0c611385565b6005811115610f1d57610f1d611385565b8152602001600782018054610f3190611658565b80601f0160208091040260200160405190810160405280929190818152602001828054610f5d90611658565b8015610faa5780601f10610f7f57610100808354040283529160200191610faa565b820191906000526020600020905b815481529060010190602001808311610f8d57829003601f168201915b505050505081526020016008820154815250509050919050565b600082815260208190526040902060010154610fdf81611192565b6106cf8383611258565b610ff161119c565b600082815260046020526040902060018101546001600160a01b031661102a5760405163c0a8563160e01b815260040160405180910390fd5b60028101546001600160a01b03163314611057576040516303bb748360e31b815260040160405180910390fd5b6001600682015460ff16600581111561107257611072611385565b1461109c5760068101546040516369d22f4360e11b81526105a39160ff1690600190600401611692565b4281600501541161112a576002805490820154604051631210279760e01b81526001600160a01b03918216600482015260006024820152911690631210279790604401600060405180830381600087803b1580156110f957600080fd5b505af115801561110d573d6000803e3d6000fd5b5050505060405163387b2e5560e11b815260040160405180910390fd5b600781016111388382611797565b5060068101805460ff19166002179055604051339084907f9305583ff3d114df3e34c22dbfbaded0901fc58b7d6b03b361b2290c99f7e4399061117c9086906118a3565b60405180910390a35061118e60018055565b5050565b6106a781336112c3565b6002600154036111bf57604051633ee5aeb560e01b815260040160405180910390fd5b6002600155565b60006111d28383610b45565b611250576000838152602081815260408083206001600160a01b03861684529091529020805460ff191660011790556112083390565b6001600160a01b0316826001600160a01b0316847f2f8788117e7eff1d82e926ec794901d17c78024a50270940304540a733656f0d60405160405180910390a4506001610310565b506000610310565b60006112648383610b45565b15611250576000838152602081815260408083206001600160a01b0386168085529252808320805460ff1916905551339286917ff6391f5c32d9c69d2a47ea670b442974b53935d1edc7fd64eb21e047a839171b9190a4506001610310565b6112cd8282610b45565b61118e5760405163e2517d3f60e01b81526001600160a01b0382166004820152602481018390526044016105a3565b60006020828403121561130e57600080fd5b81356001600160e01b031981168114610b3e57600080fd5b60006020828403121561133857600080fd5b5035919050565b6000815180845260005b8181101561136557602081850181015186830182015201611349565b506000602082860101526020601f19601f83011685010191505092915050565b634e487b7160e01b600052602160045260246000fd5b600681106113b957634e487b7160e01b600052602160045260246000fd5b9052565b8981526001600160a01b03898116602083015288166040820152610120606082018190526000906113f08382018a61133f565b90508760808401528660a084015261140b60c084018761139b565b82810360e084015261141d818661133f565b915050826101008301529a9950505050505050505050565b6000806040838503121561144857600080fd5b8235915060208301356001600160a01b038116811461146657600080fd5b809150509250929050565b634e487b7160e01b600052604160045260246000fd5b600082601f83011261149857600080fd5b813567ffffffffffffffff808211156114b3576114b3611471565b604051601f8301601f19908116603f011681019082821181831017156114db576114db611471565b816040528381528660208588010111156114f457600080fd5b836020870160208301376000602085830101528094505050505092915050565b60008060006060848603121561152957600080fd5b833567ffffffffffffffff81111561154057600080fd5b61154c86828701611487565b9660208601359650604090950135949350505050565b60208152815160208201526000602083015161158960408401826001600160a01b03169052565b5060408301516001600160a01b03811660608401525060608301516101208060808501526115bb61014085018361133f565b9150608085015160a085015260a085015160c085015260c08501516115e360e086018261139b565b5060e0850151610100601f198685030181870152611601848361133f565b9601519190940152509192915050565b6000806040838503121561162457600080fd5b82359150602083013567ffffffffffffffff81111561164257600080fd5b61164e85828601611487565b9150509250929050565b600181811c9082168061166c57607f821691505b60208210810361168c57634e487b7160e01b600052602260045260246000fd5b50919050565b604081016116a0828561139b565b610b3e602083018461139b565b805180151581146116bd57600080fd5b919050565b6000602082840312156116d457600080fd5b610b3e826116ad565b6000608082840312156116ef57600080fd5b6040516080810181811067ffffffffffffffff8211171561171257611712611471565b806040525082518152602083015160208201526040830151604082015261173b606084016116ad565b60608201529392505050565b601f821115610708576000816000526020600020601f850160051c810160208610156117705750805b601f850160051c820191505b8181101561178f5782815560010161177c565b505050505050565b815167ffffffffffffffff8111156117b1576117b1611471565b6117c5816117bf8454611658565b84611747565b602080601f8311600181146117fa57600084156117e25750858301515b600019600386901b1c1916600185901b17855561178f565b600085815260208120601f198616915b828110156118295788860151825594840194600190910190840161180a565b50858210156118475787850151600019600388901b60f8161c191681555b5050505050600190811b01905550565b60006001820161187757634e487b7160e01b600052601160045260246000fd5b5060010190565b606081526000611891606083018661133f565b60208301949094525060400152919050565b602081526000610b3e602083018461133f56fea264697066735822122093503ea9fe2c2d85280804a70e3e90f0d2cee8bf8b6ca3b14a09fb6293a5e05d64736f6c63430008180033","linkReferences":{}},"methodIdentifiers":{"DEFAULT_ADMIN_ROLE()":"a217fddf","acceptJob(uint256)":"63b2f3c9","cancelJob(uint256)":"1dffa3dc","claimPaymentAndCompleteJob(uint256)":"9208cd7e","createJob(string,uint256,uint256)":"79c62711","getJob(uint256)":"bf22c457","getRoleAdmin(bytes32)":"248a9ca3","grantRole(bytes32,address)":"2f2ff15d","hasRole(bytes32,address)":"91d14854","jobPaymentToken()":"aab368da","jobs(uint256)":"180aedf3","minProviderStakeRequired()":"474a750e","nextJobId()":"b0c2aa5e","providerRegistry()":"545921d9","renounceRole(bytes32,address)":"36568abe","revokeRole(bytes32,address)":"d547741f","setMinProviderStakeRequired(uint256)":"1ae649e8","submitJobResult(uint256,string)":"e2322085","supportsInterface(bytes4)":"01ffc9a7"},"id":52}