{"abi":[{"type":"constructor","inputs":[{"name":"_providerRegistryAddress","type":"address","internalType":"address"},{"name":"_jobPaymentTokenAddress","type":"address","internalType":"address"},{"name":"_risc0VerifierRouterAddress","type":"address","internalType":"address"},{"name":"_initialAdmin","type":"address","internalType":"address"}],"stateMutability":"nonpayable"},{"type":"function","name":"DEFAULT_ADMIN_ROLE","inputs":[],"outputs":[{"name":"","type":"bytes32","internalType":"bytes32"}],"stateMutability":"view"},{"type":"function","name":"acceptJob","inputs":[{"name":"_jobId","type":"uint256","internalType":"uint256"}],"outputs":[],"stateMutability":"nonpayable"},{"type":"function","name":"cancelJob","inputs":[{"name":"_jobId","type":"uint256","internalType":"uint256"}],"outputs":[],"stateMutability":"nonpayable"},{"type":"function","name":"createJob","inputs":[{"name":"_jobDataCID","type":"string","internalType":"string"},{"name":"_paymentAmountGPUCredit","type":"uint256","internalType":"uint256"},{"name":"_deadlineTimestamp","type":"uint256","internalType":"uint256"},{"name":"_methodId","type":"bytes32","internalType":"bytes32"}],"outputs":[{"name":"jobId","type":"uint256","internalType":"uint256"}],"stateMutability":"nonpayable"},{"type":"function","name":"getJob","inputs":[{"name":"_jobId","type":"uint256","internalType":"uint256"}],"outputs":[{"name":"","type":"tuple","internalType":"struct JobManager.Job","components":[{"name":"id","type":"uint256","internalType":"uint256"},{"name":"client","type":"address","internalType":"address"},{"name":"provider","type":"address","internalType":"address"},{"name":"jobDataCID","type":"string","internalType":"string"},{"name":"maxPaymentGPUCredit","type":"uint256","internalType":"uint256"},{"name":"deadlineTimestamp","type":"uint256","internalType":"uint256"},{"name":"status","type":"uint8","internalType":"enum JobManager.JobStatus"},{"name":"resultDataCID","type":"string","internalType":"string"},{"name":"creationTimestamp","type":"uint256","internalType":"uint256"},{"name":"methodId","type":"bytes32","internalType":"bytes32"}]}],"stateMutability":"view"},{"type":"function","name":"getRoleAdmin","inputs":[{"name":"role","type":"bytes32","internalType":"bytes32"}],"outputs":[{"name":"","type":"bytes32","internalType":"bytes32"}],"stateMutability":"view"},{"type":"function","name":"grantRole","inputs":[{"name":"role","type":"bytes32","internalType":"bytes32"},{"name":"account","type":"address","internalType":"address"}],"outputs":[],"stateMutability":"nonpayable"},{"type":"function","name":"hasRole","inputs":[{"name":"role","type":"bytes32","internalType":"bytes32"},{"name":"account","type":"address","internalType":"address"}],"outputs":[{"name":"","type":"bool","internalType":"bool"}],"stateMutability":"view"},{"type":"function","name":"jobPaymentToken","inputs":[],"outputs":[{"name":"","type":"address","internalType":"contract IERC20"}],"stateMutability":"view"},{"type":"function","name":"jobs","inputs":[{"name":"","type":"uint256","internalType":"uint256"}],"outputs":[{"name":"id","type":"uint256","internalType":"uint256"},{"name":"client","type":"address","internalType":"address"},{"name":"provider","type":"address","internalType":"address"},{"name":"jobDataCID","type":"string","internalType":"string"},{"name":"maxPaymentGPUCredit","type":"uint256","internalType":"uint256"},{"name":"deadlineTimestamp","type":"uint256","internalType":"uint256"},{"name":"status","type":"uint8","internalType":"enum JobManager.JobStatus"},{"name":"resultDataCID","type":"string","internalType":"string"},{"name":"creationTimestamp","type":"uint256","internalType":"uint256"},{"name":"methodId","type":"bytes32","internalType":"bytes32"}],"stateMutability":"view"},{"type":"function","name":"minProviderStakeRequired","inputs":[],"outputs":[{"name":"","type":"uint256","internalType":"uint256"}],"stateMutability":"view"},{"type":"function","name":"nextJobId","inputs":[],"outputs":[{"name":"","type":"uint256","internalType":"uint256"}],"stateMutability":"view"},{"type":"function","name":"providerRegistry","inputs":[],"outputs":[{"name":"","type":"address","internalType":"contract IProviderRegistry"}],"stateMutability":"view"},{"type":"function","name":"renounceRole","inputs":[{"name":"role","type":"bytes32","internalType":"bytes32"},{"name":"callerConfirmation","type":"address","internalType":"address"}],"outputs":[],"stateMutability":"nonpayable"},{"type":"function","name":"revokeRole","inputs":[{"name":"role","type":"bytes32","internalType":"bytes32"},{"name":"account","type":"address","internalType":"address"}],"outputs":[],"stateMutability":"nonpayable"},{"type":"function","name":"setMinProviderStakeRequired","inputs":[{"name":"_newMinStake","type":"uint256","internalType":"uint256"}],"outputs":[],"stateMutability":"nonpayable"},{"type":"function","name":"setProviderRegistry","inputs":[{"name":"_newProviderRegistryAddress","type":"address","internalType":"address"}],"outputs":[],"stateMutability":"nonpayable"},{"type":"function","name":"setVerifier","inputs":[{"name":"_newVerifierRouterAddress","type":"address","internalType":"address"}],"outputs":[],"stateMutability":"nonpayable"},{"type":"function","name":"submitProofAndClaim","inputs":[{"name":"_jobId","type":"uint256","internalType":"uint256"},{"name":"_seal","type":"bytes","internalType":"bytes"},{"name":"_journalHash","type":"bytes32","internalType":"bytes32"},{"name":"_resultDataCID","type":"string","internalType":"string"}],"outputs":[],"stateMutability":"nonpayable"},{"type":"function","name":"supportsInterface","inputs":[{"name":"interfaceId","type":"bytes4","internalType":"bytes4"}],"outputs":[{"name":"","type":"bool","internalType":"bool"}],"stateMutability":"view"},{"type":"function","name":"verifier","inputs":[],"outputs":[{"name":"","type":"address","internalType":"contract IRiscZeroVerifier"}],"stateMutability":"view"},{"type":"event","name":"JobAccepted","inputs":[{"name":"jobId","type":"uint256","indexed":true,"internalType":"uint256"},{"name":"provider","type":"address","indexed":true,"internalType":"address"}],"anonymous":false},{"type":"event","name":"JobCancelled","inputs":[{"name":"jobId","type":"uint256","indexed":true,"internalType":"uint256"},{"name":"client","type":"address","indexed":true,"internalType":"address"},{"name":"refundAmountGPUCredit","type":"uint256","indexed":false,"internalType":"uint256"}],"anonymous":false},{"type":"event","name":"JobCompletedAndPaid","inputs":[{"name":"jobId","type":"uint256","indexed":true,"internalType":"uint256"},{"name":"provider","type":"address","indexed":true,"internalType":"address"},{"name":"paymentAmountGPUCredit","type":"uint256","indexed":false,"internalType":"uint256"}],"anonymous":false},{"type":"event","name":"JobCreated","inputs":[{"name":"jobId","type":"uint256","indexed":true,"internalType":"uint256"},{"name":"client","type":"address","indexed":true,"internalType":"address"},{"name":"jobDataCID","type":"string","indexed":false,"internalType":"string"},{"name":"maxPaymentGPUCredit","type":"uint256","indexed":false,"internalType":"uint256"},{"name":"deadlineTimestamp","type":"uint256","indexed":false,"internalType":"uint256"},{"name":"methodId","type":"bytes32","indexed":true,"internalType":"bytes32"}],"anonymous":false},{"type":"event","name":"JobProofVerified","inputs":[{"name":"jobId","type":"uint256","indexed":true,"internalType":"uint256"},{"name":"provider","type":"address","indexed":true,"internalType":"address"},{"name":"methodId","type":"bytes32","indexed":false,"internalType":"bytes32"},{"name":"journalHash","type":"bytes32","indexed":false,"internalType":"bytes32"}],"anonymous":false},{"type":"event","name":"MinProviderStakeRequiredChanged","inputs":[{"name":"oldStake","type":"uint256","indexed":false,"internalType":"uint256"},{"name":"newStake","type":"uint256","indexed":false,"internalType":"uint256"}],"anonymous":false},{"type":"event","name":"RoleAdminChanged","inputs":[{"name":"role","type":"bytes32","indexed":true,"internalType":"bytes32"},{"name":"previousAdminRole","type":"bytes32","indexed":true,"internalType":"bytes32"},{"name":"newAdminRole","type":"bytes32","indexed":true,"internalType":"bytes32"}],"anonymous":false},{"type":"event","name":"RoleGranted","inputs":[{"name":"role","type":"bytes32","indexed":true,"internalType":"bytes32"},{"name":"account","type":"address","indexed":true,"internalType":"address"},{"name":"sender","type":"address","indexed":true,"internalType":"address"}],"anonymous":false},{"type":"event","name":"RoleRevoked","inputs":[{"name":"role","type":"bytes32","indexed":true,"internalType":"bytes32"},{"name":"account","type":"address","indexed":true,"internalType":"address"},{"name":"sender","type":"address","indexed":true,"internalType":"address"}],"anonymous":false},{"type":"error","name":"AccessControlBadConfirmation","inputs":[]},{"type":"error","name":"AccessControlUnauthorizedAccount","inputs":[{"name":"account","type":"address","internalType":"address"},{"name":"neededRole","type":"bytes32","internalType":"bytes32"}]},{"type":"error","name":"DeadlineMustBeInFuture","inputs":[]},{"type":"error","name":"DeadlinePassed","inputs":[]},{"type":"error","name":"EscrowAmountZero","inputs":[]},{"type":"error","name":"InvalidJobStatus","inputs":[{"name":"current","type":"uint8","internalType":"enum JobManager.JobStatus"},{"name":"required","type":"uint8","internalType":"enum JobManager.JobStatus"}]},{"type":"error","name":"JobAlreadyHasProvider","inputs":[]},{"type":"error","name":"JobNotFound","inputs":[]},{"type":"error","name":"MethodIdMismatch","inputs":[]},{"type":"error","name":"NotJobClient","inputs":[]},{"type":"error","name":"NotJobProvider","inputs":[]},{"type":"error","name":"OnlyAssignedProviderCanSubmit","inputs":[]},{"type":"error","name":"ProviderNotRegisteredOrInsufficientStake","inputs":[]},{"type":"error","name":"ReentrancyGuardReentrantCall","inputs":[]},{"type":"error","name":"TokenTransferFailed","inputs":[]},{"type":"error","name":"ZKProofVerificationFailed","inputs":[]}],"bytecode":{"object":"0x60806040523480156200001157600080fd5b5060405162001e8d38038062001e8d8339810160408190526200003491620002ae565b600180556001600160a01b038316620000a35760405162461bcd60e51b815260206004820152602660248201527f4a6f625061796d656e74546f6b656e20616464726573732063616e6e6f74206260448201526565207a65726f60d01b60648201526084015b60405180910390fd5b6001600160a01b0382166200010e5760405162461bcd60e51b815260206004820152602a60248201527f52697363305665726966696572526f7574657220616464726573732063616e6e6044820152696f74206265207a65726f60b01b60648201526084016200009a565b6001600160a01b038116620001725760405162461bcd60e51b8152602060048201526024808201527f496e697469616c2061646d696e20616464726573732063616e6e6f74206265206044820152637a65726f60e01b60648201526084016200009a565b600380546001600160a01b038086166001600160a01b031992831617909255600280548584169216919091179055841615620001c457600480546001600160a01b0319166001600160a01b0386161790555b620001d1600082620001e2565b50506000600755506200030b915050565b6000828152602081815260408083206001600160a01b038516845290915281205460ff1662000287576000838152602081815260408083206001600160a01b03861684529091529020805460ff191660011790556200023e3390565b6001600160a01b0316826001600160a01b0316847f2f8788117e7eff1d82e926ec794901d17c78024a50270940304540a733656f0d60405160405180910390a45060016200028b565b5060005b92915050565b80516001600160a01b0381168114620002a957600080fd5b919050565b60008060008060808587031215620002c557600080fd5b620002d08562000291565b9350620002e06020860162000291565b9250620002f06040860162000291565b9150620003006060860162000291565b905092959194509250565b611b72806200031b6000396000f3fe608060405234801561001057600080fd5b50600436106101375760003560e01c8063545921d9116100b8578063b0c2aa5e1161007c578063b0c2aa5e14610298578063bf22c457146102a1578063d31bfc02146102c1578063d547741f146102d4578063ee73e7b4146102e7578063f760660e146102fa57600080fd5b8063545921d91461024457806363b2f3c91461025757806391d148541461026a578063a217fddf1461027d578063aab368da1461028557600080fd5b80632b7ac3f3116100ff5780632b7ac3f3146101d75780632f2ff15d1461020257806336568abe14610215578063474a750e146102285780635437988d1461023157600080fd5b806301ffc9a71461013c578063180aedf3146101645780631ae649e81461018d5780631dffa3dc146101a2578063248a9ca3146101b5575b600080fd5b61014f61014a3660046114af565b61030d565b60405190151581526020015b60405180910390f35b6101776101723660046114e0565b610344565b60405161015b9a99989796959493929190611577565b6101a061019b3660046114e0565b6104b8565b005b6101a06101b03660046114e0565b610509565b6101c96101c33660046114e0565b50600090565b60405190815260200161015b565b6002546101ea906001600160a01b031681565b6040516001600160a01b03909116815260200161015b565b6101a061021036600461160f565b61070b565b6101a061022336600461160f565b610726565b6101c960075481565b6101a061023f36600461163b565b61075e565b6004546101ea906001600160a01b031681565b6101a06102653660046114e0565b6107f5565b61014f61027836600461160f565b6109de565b6101c9600081565b6003546101ea906001600160a01b031681565b6101c960065481565b6102b46102af3660046114e0565b610a07565b60405161015b9190611656565b6101a06102cf3660046117b7565b610c66565b6101a06102e236600461160f565b611084565b6101c96102f5366004611862565b611099565b6101a061030836600461163b565b611313565b60006001600160e01b03198216637965db0b60e01b148061033e57506301ffc9a760e01b6001600160e01b03198316145b92915050565b600560205260009081526040902080546001820154600283015460038401805493946001600160a01b03938416949390921692610380906118b6565b80601f01602080910402602001604051908101604052809291908181526020018280546103ac906118b6565b80156103f95780601f106103ce576101008083540402835291602001916103f9565b820191906000526020600020905b8154815290600101906020018083116103dc57829003601f168201915b5050506004840154600585015460068601546007870180549697939692955060ff909116935090610429906118b6565b80601f0160208091040260200160405190810160405280929190818152602001828054610455906118b6565b80156104a25780601f10610477576101008083540402835291602001916104a2565b820191906000526020600020905b81548152906001019060200180831161048557829003601f168201915b505050505090806008015490806009015490508a565b60006104c381611341565b600780549083905560408051828152602081018590527ff110c78355ed343b8c0ffb07c0f81c094c6d84b73f8367ea497fe0cdc931dcb5910160405180910390a1505050565b61051161134b565b60008181526005602052604090206001015481906001600160a01b031661054b5760405163c0a8563160e01b815260040160405180910390fd5b6000818152600560205260409020600101546001600160a01b03163314610585576040516306c3711360e11b815260040160405180910390fd5b600082815260056020526040812090600682015460ff1660048111156105ad576105ad61153f565b14610610576001600682015460ff1660048111156105cd576105cd61153f565b1480156105de575042816005015411155b6106105760068101546040516369d22f4360e11b81526106079160ff16906000906004016118f0565b60405180910390fd5b600481015460068201805460ff19166003179055604051818152339085907fa80c76c474b34cc7af71dec63d733b959fff08f4eb0789e288be5db6b608f9429060200160405180910390a3600354600183015460405163a9059cbb60e01b81526001600160a01b03918216600482015260248101849052600092919091169063a9059cbb906044016020604051808303816000875af11580156106b7573d6000803e3d6000fd5b505050506040513d601f19601f820116820180604052508101906106db919061191b565b9050806106fb5760405163022e258160e11b815260040160405180910390fd5b5050505061070860018055565b50565b600061071681611341565b6107208383611375565b50505050565b6001600160a01b038116331461074f5760405163334bd91960e11b815260040160405180910390fd5b6107598282611407565b505050565b600061076981611341565b6001600160a01b0382166107d25760405162461bcd60e51b815260206004820152602a60248201527f52697363305665726966696572526f7574657220616464726573732063616e6e6044820152696f74206265207a65726f60b01b6064820152608401610607565b50600280546001600160a01b0319166001600160a01b0392909216919091179055565b6107fd61134b565b600081815260056020526040902060018101546001600160a01b03166108365760405163c0a8563160e01b815260040160405180910390fd5b6000600682015460ff1660048111156108515761085161153f565b1461087b5760068101546040516369d22f4360e11b81526106079160ff16906000906004016118f0565b4281600501541161089f5760405163387b2e5560e11b815260040160405180910390fd5b60028101546001600160a01b0316156108cb5760405163d2ae14c360e01b815260040160405180910390fd5b6004546001600160a01b0316156109835760048054604051637583902f60e01b815233928101929092526000916001600160a01b0390911690637583902f90602401608060405180830381865afa15801561092a573d6000803e3d6000fd5b505050506040513d601f19601f8201168201806040525081019061094e9190611936565b90508060600151158061096357506007548151105b156109815760405163fd79d7bf60e01b815260040160405180910390fd5b505b6002810180546001600160a01b0319163390811790915560068201805460ff1916600117905560405183907f4426e4a90a9570c8f678a263b11785eaaade8b79d76d18c43d4d8e00062e4f8390600090a35061070860018055565b6000918252602082815260408084206001600160a01b0393909316845291905290205460ff1690565b610a5b60408051610140810182526000808252602082018190529181018290526060808201526080810182905260a081018290529060c0820190815260606020820181905260006040830181905291015290565b6000828152600560205260409020600101546001600160a01b0316610a935760405163c0a8563160e01b815260040160405180910390fd5b6000828152600560209081526040918290208251610140810184528154815260018201546001600160a01b0390811693820193909352600282015490921692820192909252600382018054919291606084019190610af0906118b6565b80601f0160208091040260200160405190810160405280929190818152602001828054610b1c906118b6565b8015610b695780601f10610b3e57610100808354040283529160200191610b69565b820191906000526020600020905b815481529060010190602001808311610b4c57829003601f168201915b5050509183525050600482810154602083015260058301546040830152600683015460609092019160ff1690811115610ba457610ba461153f565b6004811115610bb557610bb561153f565b8152602001600782018054610bc9906118b6565b80601f0160208091040260200160405190810160405280929190818152602001828054610bf5906118b6565b8015610c425780601f10610c1757610100808354040283529160200191610c42565b820191906000526020600020905b815481529060010190602001808311610c2557829003601f168201915b50505050508152602001600882015481526020016009820154815250509050919050565b610c6e61134b565b60008581526005602052604090206001015485906001600160a01b0316610ca85760405163c0a8563160e01b815260040160405180910390fd5b6000818152600560205260409020600201546001600160a01b0316610d0f5760405162461bcd60e51b815260206004820152601860248201527f4a6f624e6f7441737369676e6564546f50726f766964657200000000000000006044820152606401610607565b6000818152600560205260409020600201546001600160a01b03163314610d495760405163c226996b60e01b815260040160405180910390fd5b60008681526005602052604090206001600682015460ff166004811115610d7257610d7261153f565b14610d9c5760068101546040516369d22f4360e11b81526106079160ff16906001906004016118f0565b42816005015411610e3e576004546001600160a01b031615610e2557600480546002830154604051631210279760e01b81526001600160a01b0391821693810193909352600060248401521690631210279790604401600060405180830381600087803b158015610e0c57600080fd5b505af1158015610e20573d6000803e3d6000fd5b505050505b60405163387b2e5560e11b815260040160405180910390fd5b600254600982015460405163ab750e7560e01b81526001600160a01b039092169163ab750e7591610e77918a918a918a906004016119a0565b60006040518083038186803b158015610e8f57600080fd5b505afa158015610ea3573d6000803e3d6000fd5b5050506009820154604080519182526020820187905233925089917f358c005a2669ec860cf78f41699a0fa768cfe0330b41bdf7231fec759bbf1216910160405180910390a360078101610ef78482611a30565b5060068101805460ff191660021790556004546001600160a01b031615610f8557600480546002830154604051631210279760e01b81526001600160a01b0391821693810193909352600160248401521690631210279790604401600060405180830381600087803b158015610f6c57600080fd5b505af1158015610f80573d6000803e3d6000fd5b505050505b600481015460028201546040518281526001600160a01b039091169089907fc65d40d77d557586a1ab6243a7f6d4e30797ed4a940f9491d7e1f2cbbc7709999060200160405180910390a3600354600283015460405163a9059cbb60e01b81526001600160a01b03918216600482015260248101849052600092919091169063a9059cbb906044016020604051808303816000875af115801561102c573d6000803e3d6000fd5b505050506040513d601f19601f82011682018060405250810190611050919061191b565b9050806110705760405163022e258160e11b815260040160405180910390fd5b5050505061107d60018055565b5050505050565b600061108f81611341565b6107208383611407565b60006110a361134b565b836000036110c457604051633807d84360e01b815260040160405180910390fd5b4283116110e457604051630642ce7760e01b815260040160405180910390fd5b6003546040516323b872dd60e01b8152336004820152306024820152604481018690526000916001600160a01b0316906323b872dd906064016020604051808303816000875af115801561113c573d6000803e3d6000fd5b505050506040513d601f19601f82011682018060405250810190611160919061191b565b9050806111805760405163022e258160e11b815260040160405180910390fd5b60065460408051610140810182528281523360208083019182526000838501818152606085018d8152608086018d905260a086018c905260c086018390528651808501885283815260e08701524261010087015261012086018b905287835260059093529490208351815591516001830180546001600160a01b03199081166001600160a01b0393841617909155945160028401805490961691161790935591519294509160038201906112349082611a30565b506080820151816004015560a0820151816005015560c08201518160060160006101000a81548160ff021916908360048111156112735761127361153f565b021790555060e0820151600782019061128c9082611a30565b50610100820151600882015561012090910151600990910155600680549060006112b583611af0565b919050555082336001600160a01b0316837f2afeddd8c4f84fc551f8b0684e1906066d9b11c562adc317bcf856cb165a43378989896040516112f993929190611b17565b60405180910390a45061130b60018055565b949350505050565b600061131e81611341565b50600480546001600160a01b0319166001600160a01b0392909216919091179055565b6107088133611472565b60026001540361136e57604051633ee5aeb560e01b815260040160405180910390fd5b6002600155565b600061138183836109de565b6113ff576000838152602081815260408083206001600160a01b03861684529091529020805460ff191660011790556113b73390565b6001600160a01b0316826001600160a01b0316847f2f8788117e7eff1d82e926ec794901d17c78024a50270940304540a733656f0d60405160405180910390a450600161033e565b50600061033e565b600061141383836109de565b156113ff576000838152602081815260408083206001600160a01b0386168085529252808320805460ff1916905551339286917ff6391f5c32d9c69d2a47ea670b442974b53935d1edc7fd64eb21e047a839171b9190a450600161033e565b61147c82826109de565b6114ab5760405163e2517d3f60e01b81526001600160a01b038216600482015260248101839052604401610607565b5050565b6000602082840312156114c157600080fd5b81356001600160e01b0319811681146114d957600080fd5b9392505050565b6000602082840312156114f257600080fd5b5035919050565b6000815180845260005b8181101561151f57602081850181015186830182015201611503565b506000602082860101526020601f19601f83011685010191505092915050565b634e487b7160e01b600052602160045260246000fd5b6005811061157357634e487b7160e01b600052602160045260246000fd5b9052565b8a81526001600160a01b038a8116602083015289166040820152610140606082018190526000906115aa8382018b6114f9565b90508860808401528760a08401526115c560c0840188611555565b82810360e08401526115d781876114f9565b6101008401959095525050610120015298975050505050505050565b80356001600160a01b038116811461160a57600080fd5b919050565b6000806040838503121561162257600080fd5b82359150611632602084016115f3565b90509250929050565b60006020828403121561164d57600080fd5b6114d9826115f3565b60208152815160208201526000602083015161167d60408401826001600160a01b03169052565b5060408301516001600160a01b03811660608401525060608301516101408060808501526116af6101608501836114f9565b9150608085015160a085015260a085015160c085015260c08501516116d760e0860182611555565b5060e0850151610100601f1986850301818701526116f584836114f9565b9087015161012087810191909152909601519190940152509192915050565b634e487b7160e01b600052604160045260246000fd5b600082601f83011261173b57600080fd5b813567ffffffffffffffff8082111561175657611756611714565b604051601f8301601f19908116603f0116810190828211818310171561177e5761177e611714565b8160405283815286602085880101111561179757600080fd5b836020870160208301376000602085830101528094505050505092915050565b6000806000806000608086880312156117cf57600080fd5b85359450602086013567ffffffffffffffff808211156117ee57600080fd5b818801915088601f83011261180257600080fd5b81358181111561181157600080fd5b89602082850101111561182357600080fd5b6020830196508095505060408801359350606088013591508082111561184857600080fd5b506118558882890161172a565b9150509295509295909350565b6000806000806080858703121561187857600080fd5b843567ffffffffffffffff81111561188f57600080fd5b61189b8782880161172a565b97602087013597506040870135966060013595509350505050565b600181811c908216806118ca57607f821691505b6020821081036118ea57634e487b7160e01b600052602260045260246000fd5b50919050565b604081016118fe8285611555565b6114d96020830184611555565b8051801515811461160a57600080fd5b60006020828403121561192d57600080fd5b6114d98261190b565b60006080828403121561194857600080fd5b6040516080810181811067ffffffffffffffff8211171561196b5761196b611714565b80604052508251815260208301516020820152604083015160408201526119946060840161190b565b60608201529392505050565b606081528360608201528385608083013760006080858301015260006080601f19601f870116830101905083602083015282604083015295945050505050565b601f821115610759576000816000526020600020601f850160051c81016020861015611a095750805b601f850160051c820191505b81811015611a2857828155600101611a15565b505050505050565b815167ffffffffffffffff811115611a4a57611a4a611714565b611a5e81611a5884546118b6565b846119e0565b602080601f831160018114611a935760008415611a7b5750858301515b600019600386901b1c1916600185901b178555611a28565b600085815260208120601f198616915b82811015611ac257888601518255948401946001909101908401611aa3565b5085821015611ae05787850151600019600388901b60f8161c191681555b5050505050600190811b01905550565b600060018201611b1057634e487b7160e01b600052601160045260246000fd5b5060010190565b606081526000611b2a60608301866114f9565b6020830194909452506040015291905056fea26469706673582212201a09f79a2507f1ee5ae88a69b12d7f9ddadfd250f04beedd2d9ba92cbdd0257264736f6c63430008180033","linkReferences":{}},"methodIdentifiers":{"DEFAULT_ADMIN_ROLE()":"a217fddf","acceptJob(uint256)":"63b2f3c9","cancelJob(uint256)":"1dffa3dc","createJob(string,uint256,uint256,bytes32)":"ee73e7b4","getJob(uint256)":"bf22c457","getRoleAdmin(bytes32)":"248a9ca3","grantRole(bytes32,address)":"2f2ff15d","hasRole(bytes32,address)":"91d14854","jobPaymentToken()":"aab368da","jobs(uint256)":"180aedf3","minProviderStakeRequired()":"474a750e","nextJobId()":"b0c2aa5e","providerRegistry()":"545921d9","renounceRole(bytes32,address)":"36568abe","revokeRole(bytes32,address)":"d547741f","setMinProviderStakeRequired(uint256)":"1ae649e8","setProviderRegistry(address)":"f760660e","setVerifier(address)":"5437988d","submitProofAndClaim(uint256,bytes,bytes32,string)":"d31bfc02","supportsInterface(bytes4)":"01ffc9a7","verifier()":"2b7ac3f3"},"id":52}