{"abi":[{"type":"constructor","inputs":[{"name":"_stakeTokenAddress","type":"address","internalType":"address"},{"name":"_initialAdmin","type":"address","internalType":"address"},{"name":"_initialSlasher","type":"address","internalType":"address"},{"name":"_initialRater","type":"address","internalType":"address"}],"stateMutability":"nonpayable"},{"type":"function","name":"DEFAULT_ADMIN_ROLE","inputs":[],"outputs":[{"name":"","type":"bytes32","internalType":"bytes32"}],"stateMutability":"view"},{"type":"function","name":"RATER_ROLE","inputs":[],"outputs":[{"name":"","type":"bytes32","internalType":"bytes32"}],"stateMutability":"view"},{"type":"function","name":"SLASHER_ROLE","inputs":[],"outputs":[{"name":"","type":"bytes32","internalType":"bytes32"}],"stateMutability":"view"},{"type":"function","name":"getProviderInfo","inputs":[{"name":"_provider","type":"address","internalType":"address"}],"outputs":[{"name":"","type":"tuple","internalType":"struct ProviderRegistry.ProviderInfo","components":[{"name":"stakeAmount","type":"uint256","internalType":"uint256"},{"name":"jobsDone","type":"uint256","internalType":"uint256"},{"name":"successfulJobs","type":"uint256","internalType":"uint256"},{"name":"exists","type":"bool","internalType":"bool"}]}],"stateMutability":"view"},{"type":"function","name":"getRoleAdmin","inputs":[{"name":"role","type":"bytes32","internalType":"bytes32"}],"outputs":[{"name":"","type":"bytes32","internalType":"bytes32"}],"stateMutability":"view"},{"type":"function","name":"grantRole","inputs":[{"name":"role","type":"bytes32","internalType":"bytes32"},{"name":"account","type":"address","internalType":"address"}],"outputs":[],"stateMutability":"nonpayable"},{"type":"function","name":"hasRole","inputs":[{"name":"role","type":"bytes32","internalType":"bytes32"},{"name":"account","type":"address","internalType":"address"}],"outputs":[{"name":"","type":"bool","internalType":"bool"}],"stateMutability":"view"},{"type":"function","name":"providers","inputs":[{"name":"","type":"address","internalType":"address"}],"outputs":[{"name":"stakeAmount","type":"uint256","internalType":"uint256"},{"name":"jobsDone","type":"uint256","internalType":"uint256"},{"name":"successfulJobs","type":"uint256","internalType":"uint256"},{"name":"exists","type":"bool","internalType":"bool"}],"stateMutability":"view"},{"type":"function","name":"rate","inputs":[{"name":"_provider","type":"address","internalType":"address"},{"name":"_success","type":"bool","internalType":"bool"}],"outputs":[],"stateMutability":"nonpayable"},{"type":"function","name":"renounceRole","inputs":[{"name":"role","type":"bytes32","internalType":"bytes32"},{"name":"callerConfirmation","type":"address","internalType":"address"}],"outputs":[],"stateMutability":"nonpayable"},{"type":"function","name":"revokeRole","inputs":[{"name":"role","type":"bytes32","internalType":"bytes32"},{"name":"account","type":"address","internalType":"address"}],"outputs":[],"stateMutability":"nonpayable"},{"type":"function","name":"setSlashedFundsRecipient","inputs":[{"name":"_recipient","type":"address","internalType":"address"}],"outputs":[],"stateMutability":"nonpayable"},{"type":"function","name":"slash","inputs":[{"name":"_provider","type":"address","internalType":"address"},{"name":"_amount","type":"uint256","internalType":"uint256"}],"outputs":[],"stateMutability":"nonpayable"},{"type":"function","name":"slashedFundsRecipient","inputs":[],"outputs":[{"name":"","type":"address","internalType":"address"}],"stateMutability":"view"},{"type":"function","name":"stake","inputs":[{"name":"_amount","type":"uint256","internalType":"uint256"}],"outputs":[],"stateMutability":"payable"},{"type":"function","name":"stakeToken","inputs":[],"outputs":[{"name":"","type":"address","internalType":"contract IERC20"}],"stateMutability":"view"},{"type":"function","name":"supportsInterface","inputs":[{"name":"interfaceId","type":"bytes4","internalType":"bytes4"}],"outputs":[{"name":"","type":"bool","internalType":"bool"}],"stateMutability":"view"},{"type":"function","name":"withdraw","inputs":[{"name":"_amount","type":"uint256","internalType":"uint256"}],"outputs":[],"stateMutability":"nonpayable"},{"type":"event","name":"ProviderRated","inputs":[{"name":"provider","type":"address","indexed":true,"internalType":"address"},{"name":"rater","type":"address","indexed":true,"internalType":"address"},{"name":"success","type":"bool","indexed":false,"internalType":"bool"}],"anonymous":false},{"type":"event","name":"ProviderSlashed","inputs":[{"name":"provider","type":"address","indexed":true,"internalType":"address"},{"name":"slasher","type":"address","indexed":true,"internalType":"address"},{"name":"amount","type":"uint256","indexed":false,"internalType":"uint256"}],"anonymous":false},{"type":"event","name":"ProviderStaked","inputs":[{"name":"provider","type":"address","indexed":true,"internalType":"address"},{"name":"amount","type":"uint256","indexed":false,"internalType":"uint256"}],"anonymous":false},{"type":"event","name":"ProviderWithdrew","inputs":[{"name":"provider","type":"address","indexed":true,"internalType":"address"},{"name":"amount","type":"uint256","indexed":false,"internalType":"uint256"}],"anonymous":false},{"type":"event","name":"RoleAdminChanged","inputs":[{"name":"role","type":"bytes32","indexed":true,"internalType":"bytes32"},{"name":"previousAdminRole","type":"bytes32","indexed":true,"internalType":"bytes32"},{"name":"newAdminRole","type":"bytes32","indexed":true,"internalType":"bytes32"}],"anonymous":false},{"type":"event","name":"RoleGranted","inputs":[{"name":"role","type":"bytes32","indexed":true,"internalType":"bytes32"},{"name":"account","type":"address","indexed":true,"internalType":"address"},{"name":"sender","type":"address","indexed":true,"internalType":"address"}],"anonymous":false},{"type":"event","name":"RoleRevoked","inputs":[{"name":"role","type":"bytes32","indexed":true,"internalType":"bytes32"},{"name":"account","type":"address","indexed":true,"internalType":"address"},{"name":"sender","type":"address","indexed":true,"internalType":"address"}],"anonymous":false},{"type":"event","name":"SlashedFundsRecipientSet","inputs":[{"name":"recipient","type":"address","indexed":false,"internalType":"address"}],"anonymous":false},{"type":"error","name":"AccessControlBadConfirmation","inputs":[]},{"type":"error","name":"AccessControlUnauthorizedAccount","inputs":[{"name":"account","type":"address","internalType":"address"},{"name":"neededRole","type":"bytes32","internalType":"bytes32"}]},{"type":"error","name":"AmountMustBePositive","inputs":[]},{"type":"error","name":"InsufficientStake","inputs":[{"name":"required","type":"uint256","internalType":"uint256"},{"name":"actual","type":"uint256","internalType":"uint256"}]},{"type":"error","name":"NotUsingEthStaking","inputs":[]},{"type":"error","name":"NotUsingTokenStaking","inputs":[]},{"type":"error","name":"ProviderNotFound","inputs":[]},{"type":"error","name":"ReentrancyGuardReentrantCall","inputs":[]},{"type":"error","name":"TransferFailed","inputs":[]}],"bytecode":{"object":"0x60a06040523480156200001157600080fd5b50604051620012ea380380620012ea8339810160408190526200003491620001b5565b600180556001600160a01b0384161562000056576001600160a01b0384166080525b62000063600084620000e9565b50620000907f12b42e8a160f6064dc959c6f251e3af0750ad213dbecf573b4710d67d6c28e3983620000e9565b50620000bd7faa73b231ad0ae3ab638a05c935438963b3f1bf6757690c17521f2710bc2b676182620000e9565b5050600380546001600160a01b0319166001600160a01b03939093169290921790915550620002129050565b6000828152602081815260408083206001600160a01b038516845290915281205460ff166200018e576000838152602081815260408083206001600160a01b03861684529091529020805460ff19166001179055620001453390565b6001600160a01b0316826001600160a01b0316847f2f8788117e7eff1d82e926ec794901d17c78024a50270940304540a733656f0d60405160405180910390a450600162000192565b5060005b92915050565b80516001600160a01b0381168114620001b057600080fd5b919050565b60008060008060808587031215620001cc57600080fd5b620001d78562000198565b9350620001e76020860162000198565b9250620001f76040860162000198565b9150620002076060860162000198565b905092959194509250565b60805161109262000258600039600081816102f20152818161058c015281816105e2015281816108da0152818161092601528181610b4d0152610be201526110926000f3fe6080604052600436106101095760003560e01c80635095af64116100955780639827e396116100645780639827e396146103a1578063a217fddf146103d5578063a694fc3a146103ea578063abdd47d0146103fd578063d547741f1461041d57600080fd5b80635095af64146102ac57806351ed6a30146102e05780637583902f1461032c57806391d148541461038157600080fd5b806312102797116100dc57806312102797146101ee578063248a9ca31461020e5780632e1a7d4d1461024c5780632f2ff15d1461026c57806336568abe1461028c57600080fd5b806301ffc9a71461010e57806302fb4d85146101435780630787bc271461016557806310e9ae04146101ce575b600080fd5b34801561011a57600080fd5b5061012e610129366004610ece565b61043d565b60405190151581526020015b60405180910390f35b34801561014f57600080fd5b5061016361015e366004610f1b565b610474565b005b34801561017157600080fd5b506101ac610180366004610f45565b600260208190526000918252604090912080546001820154928201546003909201549092919060ff1684565b604080519485526020850193909352918301521515606082015260800161013a565b3480156101da57600080fd5b506101636101e9366004610f45565b6106b5565b3480156101fa57600080fd5b50610163610209366004610f6e565b610715565b34801561021a57600080fd5b5061023e610229366004610fa5565b60009081526020819052604090206001015490565b60405190815260200161013a565b34801561025857600080fd5b50610163610267366004610fa5565b6107f9565b34801561027857600080fd5b50610163610287366004610fbe565b610a39565b34801561029857600080fd5b506101636102a7366004610fbe565b610a64565b3480156102b857600080fd5b5061023e7f12b42e8a160f6064dc959c6f251e3af0750ad213dbecf573b4710d67d6c28e3981565b3480156102ec57600080fd5b506103147f000000000000000000000000000000000000000000000000000000000000000081565b6040516001600160a01b03909116815260200161013a565b34801561033857600080fd5b5061034c610347366004610f45565b610a9c565b60405161013a919081518152602080830151908201526040808301519082015260609182015115159181019190915260800190565b34801561038d57600080fd5b5061012e61039c366004610fbe565b610b19565b3480156103ad57600080fd5b5061023e7faa73b231ad0ae3ab638a05c935438963b3f1bf6757690c17521f2710bc2b676181565b3480156103e157600080fd5b5061023e600081565b6101636103f8366004610fa5565b610b42565b34801561040957600080fd5b50600354610314906001600160a01b031681565b34801561042957600080fd5b50610163610438366004610fbe565b610d3b565b60006001600160e01b03198216637965db0b60e01b148061046e57506301ffc9a760e01b6001600160e01b03198316145b92915050565b7f12b42e8a160f6064dc959c6f251e3af0750ad213dbecf573b4710d67d6c28e3961049e81610d60565b6001600160a01b0383166000908152600260205260409020600381015460ff166104db5760405163b1cd090360e01b815260040160405180910390fd5b826000036104fc57604051632e11316f60e11b815260040160405180910390fd5b8054600090841161050d5783610510565b81545b9050808260000160008282546105269190611000565b909155505060405181815233906001600160a01b038716907f1e471f8d1582939ed30e08fac2bfd6b13feda56f469cb870a9fdeb76b71bb0a59060200160405180910390a36003546001600160a01b0316158015906105855750600081115b156106ae577f00000000000000000000000000000000000000000000000000000000000000006001600160a01b0316156106575760035460405163a9059cbb60e01b81526001600160a01b039182166004820152602481018390527f00000000000000000000000000000000000000000000000000000000000000009091169063a9059cbb906044016020604051808303816000875af115801561062d573d6000803e3d6000fd5b505050506040513d601f19601f820116820180604052508101906106519190611013565b506106ae565b6003546040516000916001600160a01b03169083908381818185875af1925050503d80600081146106a4576040519150601f19603f3d011682016040523d82523d6000602084013e6106a9565b606091505b505050505b5050505050565b60006106c081610d60565b600380546001600160a01b0319166001600160a01b0384169081179091556040519081527ffa047658a9f06b3f4a3fdb44b890c4540fa6c806bb5ec705f0dc393b008e1cca9060200160405180910390a15050565b7faa73b231ad0ae3ab638a05c935438963b3f1bf6757690c17521f2710bc2b676161073f81610d60565b6001600160a01b0383166000908152600260205260409020600381015460ff1661077c5760405163b1cd090360e01b815260040160405180910390fd5b60018101805490600061078e83611030565b919050555082156107b1576002810180549060006107ab83611030565b91905055505b604051831515815233906001600160a01b038616907ff5dd68d6b08bece85cb2b042022543d316ab8f73ec26e8ba3090fc7049e58c8c9060200160405180910390a350505050565b610801610d6a565b336000908152600260205260409020600381015460ff166108355760405163b1cd090360e01b815260040160405180910390fd5b8160000361085657604051632e11316f60e11b815260040160405180910390fd5b805482111561088a5780546040516322df051360e11b81526004810191909152602481018390526044015b60405180910390fd5b8181600001600082825461089e9190611000565b909155505060405182815233907f51b6e5002e6d978248a1ee4ed7923f0f4b241ab13ef8a9db19de9ea26cb362e79060200160405180910390a27f00000000000000000000000000000000000000000000000000000000000000006001600160a01b0316156109c15760405163a9059cbb60e01b8152336004820152602481018390526000907f00000000000000000000000000000000000000000000000000000000000000006001600160a01b03169063a9059cbb906044016020604051808303816000875af1158015610977573d6000803e3d6000fd5b505050506040513d601f19601f8201168201806040525081019061099b9190611013565b9050806109bb576040516312171d8360e31b815260040160405180910390fd5b50610a2c565b604051600090339084908381818185875af1925050503d8060008114610a03576040519150601f19603f3d011682016040523d82523d6000602084013e610a08565b606091505b5050905080610a2a576040516312171d8360e31b815260040160405180910390fd5b505b50610a3660018055565b50565b600082815260208190526040902060010154610a5481610d60565b610a5e8383610d94565b50505050565b6001600160a01b0381163314610a8d5760405163334bd91960e11b815260040160405180910390fd5b610a978282610e26565b505050565b610ac960405180608001604052806000815260200160008152602001600081526020016000151581525090565b506001600160a01b031660009081526002602081815260409283902083516080810185528154815260018201549281019290925291820154928101929092526003015460ff161515606082015290565b6000918252602082815260408084206001600160a01b0393909316845291905290205460ff1690565b610b4a610d6a565b347f00000000000000000000000000000000000000000000000000000000000000006001600160a01b031615610c7d573415610b9957604051633928c71160e01b815260040160405180910390fd5b81905080600003610bbd57604051632e11316f60e11b815260040160405180910390fd5b6040516323b872dd60e01b8152336004820152306024820152604481018290526000907f00000000000000000000000000000000000000000000000000000000000000006001600160a01b0316906323b872dd906064016020604051808303816000875af1158015610c33573d6000803e3d6000fd5b505050506040513d601f19601f82011682018060405250810190610c579190611013565b905080610c77576040516312171d8360e31b815260040160405180910390fd5b50610cbd565b80600003610c9e57604051632e11316f60e11b815260040160405180910390fd5b8115610cbd5760405163b8acc09f60e01b815260040160405180910390fd5b336000908152600260205260408120805490918391839190610ce0908490611049565b909155505060038101805460ff1916600117905560405133907fcd6dbb0e62eeb71e114bae8b2e2547921dd19209bebf32b595be3e7d247dbbb490610d289085815260200190565b60405180910390a25050610a3660018055565b600082815260208190526040902060010154610d5681610d60565b610a5e8383610e26565b610a368133610e91565b600260015403610d8d57604051633ee5aeb560e01b815260040160405180910390fd5b6002600155565b6000610da08383610b19565b610e1e576000838152602081815260408083206001600160a01b03861684529091529020805460ff19166001179055610dd63390565b6001600160a01b0316826001600160a01b0316847f2f8788117e7eff1d82e926ec794901d17c78024a50270940304540a733656f0d60405160405180910390a450600161046e565b50600061046e565b6000610e328383610b19565b15610e1e576000838152602081815260408083206001600160a01b0386168085529252808320805460ff1916905551339286917ff6391f5c32d9c69d2a47ea670b442974b53935d1edc7fd64eb21e047a839171b9190a450600161046e565b610e9b8282610b19565b610eca5760405163e2517d3f60e01b81526001600160a01b038216600482015260248101839052604401610881565b5050565b600060208284031215610ee057600080fd5b81356001600160e01b031981168114610ef857600080fd5b9392505050565b80356001600160a01b0381168114610f1657600080fd5b919050565b60008060408385031215610f2e57600080fd5b610f3783610eff565b946020939093013593505050565b600060208284031215610f5757600080fd5b610ef882610eff565b8015158114610a3657600080fd5b60008060408385031215610f8157600080fd5b610f8a83610eff565b91506020830135610f9a81610f60565b809150509250929050565b600060208284031215610fb757600080fd5b5035919050565b60008060408385031215610fd157600080fd5b82359150610fe160208401610eff565b90509250929050565b634e487b7160e01b600052601160045260246000fd5b8181038181111561046e5761046e610fea565b60006020828403121561102557600080fd5b8151610ef881610f60565b60006001820161104257611042610fea565b5060010190565b8082018082111561046e5761046e610fea56fea2646970667358221220088a3a02b5c3446476804b592616b93d47f91882d8deb4ec66fa577c0c50ed3164736f6c63430008180033","linkReferences":{}},"methodIdentifiers":{"DEFAULT_ADMIN_ROLE()":"a217fddf","RATER_ROLE()":"9827e396","SLASHER_ROLE()":"5095af64","getProviderInfo(address)":"7583902f","getRoleAdmin(bytes32)":"248a9ca3","grantRole(bytes32,address)":"2f2ff15d","hasRole(bytes32,address)":"91d14854","providers(address)":"0787bc27","rate(address,bool)":"12102797","renounceRole(bytes32,address)":"36568abe","revokeRole(bytes32,address)":"d547741f","setSlashedFundsRecipient(address)":"10e9ae04","slash(address,uint256)":"02fb4d85","slashedFundsRecipient()":"abdd47d0","stake(uint256)":"a694fc3a","stakeToken()":"51ed6a30","supportsInterface(bytes4)":"01ffc9a7","withdraw(uint256)":"2e1a7d4d"},"id":53}